:1019050020202020202020202020202020202020D2
:10191500005345542047494F0053455420504855DE
:101925005400534554204749415900534554204ECE
:1019350047415900534554205448414E47005345AB
:1019450054204E414D0042414F20544855430047D5
:10195500494F203A200050485554203A2000424132
:101965004F2054485543203F3F3F004F4646004FC8
:101975004E200054494D45203A200044415445200D
:101985003A200054686965742062692031004F4B24
:10199500203F0054686965742062692031204F4EEC
:1019A500200054686965742062692032204F4E20FA
:1019B5000054686965742062692033204F4E200009
:1019C50054686965742062692034204F4E200054A4
:1019D500686965742062692031204F464600546865
:1019E5006965742062692032204F46460054686953
:1019F50065742062692033204F4646005468696546
:101A0500742062692034204F46460054423120300C
:101A150030203A203030203A2030300048656E20A2
:101A250047696F20544231203F3F3F004E4F004FE2
:101A35004B00546869657420626920320054423253
:101A4500203030203A203030203A203030004865B0
:101A55006E2047696F20544232203F3F3F00546853
:101A65006965742062692033005442332030302088
:101A75003A203030203A2030300048656E204769E2
:101A85006F20544233203F3F3F00546869657420FE
:101A95006269203400544234203030203A203030FE
:101AA500203A2030300048656E2047696F20544247
:101AB50034203F3F3F004F4646203030203A20300B
:101AC50030203A2030300044617920646920536128
:101AD5006E6720526F690054494D452020004441EE
:101AE50054452020005442312000544231202D2DF0
:101AF500202D2D202D2D005442322000544232201D
:101B05002D2D202D2D202D2D005442332000544203
:101B150033202D2D202D2D202D2D00544234200035
:101B2500544234202D2D202D2D202D2D002D2D20FE
:101B35002D2D004B49454D20545241204F464620FE
:031B450054420007
:101EF700E4FDFCC3ED9FEC9E50070DBD00010C8077
:011F0700F2E7
:011F080022B6
:101ECF00E4FBC2927F327E00121EF7D292121EF7EF
:041EDF000BBB64EEE7
:011EE30022DC
:041E48007F147E0085
:101E4C00E4FDFCC3ED9FEC9E5015E4FBFA0BBB00CC
:0F1E5C00010AEB647D4A70F50DBD00010C80E4B6
:011E6B002254
:031EE400121EB318
:101EE700D2A17F037E00121EF7C2A17F32021EF726
:101EB300EF1392A4EFC3131392A5EF1313543F131D
:0C1EC30092A6EF131313541F1392A722D2
:101F0900AB07EBC4540FFF121EE4AF03121EB3025A
:021F19001EE7C1
:041E6C00E4FD7F0111
:101E7000EF7006ED2480FA8004ED24C0FA7FE87E3E
:101E800003121EF7AF02121F097F327E00021EF7F7
:0D1D39007D067F01121E707BFF7A1A793142
:101D46008B088A09890AAB08AA09A90A121D20FF6D
:101D56006014D2A0121F09C2A07401250AF50AE474
:071D66003509F50980E022B8
:101CC2007D077F01121E70E52B75F00A121CFEFFC4
:101CD2003395E0FEEF2430FFE43EFE121CF6E52BC6
:101CE20075F00A121CFEAFF0EF3395E0FEEF2430E0
:041CF200FFE43EFECF
:081CF600D2A0121F09C2A022B6
:071E20007FB87E0B121E4C7F
:101E2700E4FDFF121E707BFF7A197905121D461219
:101E37001E6C7BFF7A197905121D46E4FDFF021E11
:011E4700702A
:101C7E00E4FF121EB3121E48C2A07F03121EE47FA1
:101C8E00057E00121E4C121EE77F647E00121E4C53
:101C9E00121EE77F02121EB3121EE77F28121F09C3
:101CAE007F0C121F097F06121F09121E277F147E3A
:041CBE0000021E4CB6
:101F1B00D290D291C2907F017E00121E4CC291D200
:021F2B00902202
:071F3900C290D291D2902268
:101E90007E01EF339200A2009290EF25E0FFD291F5
:101EA000C2910EBE09ECD290D291A2909200C29142
:021EB000A2008E
:011EB200220D
:101D6D00E4F97F01D291A2909201E925E0F9A20157
:101D7D00E4334201C2910FBF09EA300004C29080E2
:101D8D0002D290D291C291D2907F017E00121E4C50
:021D9D00AF0194
:011D9F002221
:101DCE008F08A905121F1B7FD0121E90AF08121E7E
:101DDE0090E975F00A84C454F0FFE975F00A84E5C1
:091DEE00F04FFF121E90021F3994
:021DA000A90791
:101DA200121F1B7FD0121E90AF01121E90121F1B1A
:101DB2007FD1121E90C200121D6D121F39EFC45442
:0B1DC2000F75F00AA4FEEF540F2EFF77
:011DCD0022F3
:101B4800E4FF121DA08F2A7F01121DA08F357F028E
:101B5800121DA08F347F04121DA08F2B7F05121D2C
:101B6800A08F257F06121DA08F327D07E4FF121E6D
:101B780070E53475F00A121CFEFF121CEBE53412F6
:101B88001CE27D09E4FF121E707F3A7E00121CF6EB
:101B9800E53575F00A121CFEFF121CEBE535121C28
:101BA800E27D0CE4FF121E707F3A7E00121CF6E5FF
:101BB8002A75F00A121CFEFF121CEBE52A121CE221
:101BC800121CC27D097F01121E707F3A7E00121C12
:101BD800F6E52575F00A121CFEFF121CEBE525122E
:101BE8001CE27D0C7F01121E707F3A7E00121CF6EB
:101BF800E53275F00A121CFEFF121CEBE53275F097
:101C08000A121CFEAFF0EF3395E0FEEF2430FFE43C
:051C18003EFE021CF677
:100EDB0030B703021440121E4830B7FD121E277D97
:100EEB0004E4FF121E707BFF7A197916121D467DE2
:100EFB00077F01121E70E53475F00A121CFEFF12FB
:100F0B001CEBE534121CE220B62C121E4830B6FD49
:100F1B000534D3E534648094974003E4F5347D07BE
:100F2B007F01121E70E53475F00A121CFEFF121CB5
:100F3B00EBE534121CE220B52C121E4830B5FD1522
:100F4B0034C3E5346480948050037534177D077F78
:100F5B0001121E70E53475F00A121CFEFF121CEB19
:100F6B00E534121CE220B710121E4830B7FDAD3429
:100F7B007F02121DCE754901E54964016003021021
:100F8B0028121E277D04E4FF121E707BFF7A19794D
:100F9B001E121D467D077F01121E70E53575F00A86
:100FAB00121CFEFF121CEBE535121CE220B62C12B4
:100FBB001E4830B6FD0535D3E535648094BB400340
:100FCB00E4F5357D077F01121E70E53575F00A12C9
:100FDB001CFEFF121CEBE535121CE220B52C121E79
:100FEB004830B5FD1535C3E53564809480500375E5
:100FFB00353B7D077F01121E70E53575F00A121C1B
:10100B00FEFF121CEBE535121CE220B79F121E48A7
:10101B0030B7FDAD357F01121DCE754902E5496430
:10102B000260030210CD121E277D04E4FF121E7016
:10103B007BFF7A197927121D467D077F01121E70DF
:10104B00E52A75F00A121CFEFF121CEBE52A121C96
:10105B00E220B62C121E4830B6FD052AD3E52A64D1
:10106B008094BB4003E4F52A7D077F01121E70E5D7
:10107B002A75F00A121CFEFF121CEBE52A121CE269
:10108B0020B52C121E4830B5FD152AC3E52A648005
:10109B0094805003752A3B7D077F01121E70E52A51
:1010AB0075F00A121CFEFF121CEBE52A121CE22043
:1010BB00B79F121E4830B7FDAD2AE4FF121DCE7547
:1010CB004903E5496403705D121E277D04E4FF129A
:1010DB001E707BFF7A197930121D46121CC220B686
:1010EB0017121E4830B6FD052BD3E52B6480949F59
:1010FB004003752B01121CC220B517121E4830B5C8
:10110B00FD152BC3E52B648094815003752B1F12A7
:10111B001CC220B7C9121E4830B7FDAD2B7F04127D
:10112B001DCE754904E549640460030211D5121EF6
:10113B00277D03E4FF121E707BFF7A197939121D8C
:10114B00467D077F01121E70E52575F00A121CFE05
:10115B00FF121CEBE525121CE220B62C121E4830A8
:10116B00B6FD0525D3E5256480948C4003752501D8
:10117B007D077F01121E70E52575F00A121CFEFF1C
:10118B00121CEBE525121CE220B52C121E4830B5C3
:10119B00FD1525C3E52564809481500375250C7DD1
:1011AB00077F01121E70E52575F00A121CFEFF1257
:1011BB001CEBE525121CE220B79F121E4830B7FD31
:1011CB00AD257F05121DCE754905E5496405600304
:1011DB0002127A121E277D04E4FF121E707BFF7A27
:1011EB00197943121D467D077F01121E70E532757A
:1011FB00F00A121CFEFF121CEBE532121CE220B6A9
:10120B002C121E4830B6FD0532D3E532648094E3D0
:10121B004003E4F5327D077F01121E70E53275F055
:10122B000A121CFEFF121CEBE532121CE220B52C3D
:10123B00121E4830B5FD1532D3E532648094E3407D
:10124B0003E4F5327D077F01121E70E53275F00A5B
:10125B00121CFEFF121CEBE532121CE220B79F1290
:10126B001E4830B7FDAD327F06121DCE754906E51F
:10127B00496406600302131D121E277D04E4FF124E
:10128B001E707BFF7A19794B121D46121E6C7BFF69
:10129B007A197954121D46E53375F00A121CFEFFBC
:1012AB00121CEBE533121CE220B62C121E4830B692
:1012BB00FD0533D3E533648094974003E4F5337D28
:1012CB00067F01121E70E53375F00A121CFEFF1229
:1012DB001CEBE533121CE220B52C121E4830B5FD79
:1012EB001533C3E5336480948050037533177D0643
:1012FB007F01121E70E53375F00A121CFEFF121CE3
:10130B00EBE533121CE220B79F121E4830B7FD7578
:10131B004907E549640760030213B0FD7F01121E04
:10132B00707BFF7A19795B121D46E53775F00A124F
:10133B001CFEFF121CEBE537121CE220B62C121E12
:10134B004830B6FD0537D3E537648094BB4003E4E2
:10135B00F5377D077F01121E70E53775F00A121CF9
:10136B00FEFF121CEBE537121CE220B52C121E48B7
:10137B0030B5FD1537C3E53764809480500375375E
:10138B003B7D077F01121E70E53775F00A121CFEBC
:10139B00FF121CEBE537121CE220B79F121E4830E0
:1013AB00B7FD754908E54964087067121E277D0271
:1013BB00E4FF121E707BFF7A197963121D467D06BE
:1013CB007F01121E707BFF7A197970121D4620B6B1
:1013DB0019121E4830B6FD7530017D067F01121EB5
:1013EB00707BFF7A197974121D4620B519121E48AD
:1013FB0030B5FDE4F5307D067F01121E707BFF7A60
:10140B00197970121D4620B7C5121E4830B7FD75ED
:10141B004909E54964096003020F12F549121E27B9
:10142B007BFF7A197978121D46121E6C7BFF7A1995
:06143B007980121D46221B
:1000030030B403020EDA121E4830B4FD121E277DEF
:1000130002E4FF121E707BFF7A197988121D467D58
:10002300067F01121E707BFF7A197993121D4620F9
:10003300B614121E4830B6FD0531D3E53164809401
:10004300874003E4F53120B514121E4830B5FD1581
:1000530031C3E531648094805003753107E5317015
:100063000EFDFF121E707BFF7A197998121D46E56B
:1000730031B4010FE4FDFF121E707BFF7A1979A7DB
:10008300121D46E531B4020FE4FDFF121E707BFF23
:100093007A1979B6121D46E531B4030FE4FDFF1258
:1000A3001E707BFF7A1979C5121D46E531B4040F22
:1000B300E4FDFF121E707BFF7A1979D4121D46E509
:1000C30031B4050FE4FDFF121E707BFF7A1979E34B
:1000D300121D46E531B4060FE4FDFF121E707BFFCF
:1000E3007A1979F2121D46E531B4070FE4FDFF12C8
:1000F3001E707BFF7A1A7901121D4630B703020086
:1001030032121E4830B7FDE53160030202C6121EEB
:10011300277D02E4FF121E707BFF7A197988121D76
:1001230046121E6C7BFF7A1A7910121D4630B603F5
:100133000201BE121E4830B6FDE53670267D047FEF
:1001430001121E700541D3E541648094974003E496
:10015300F541E54175F00A121CFEFF121CEBE54167
:10016300121CE2E536640170267D097F01121E70C0
:10017300054AD3E54A648094BB4003E4F54AE54A63
:1001830075F00A121CFEFF121CEBE54A121CE2E595
:1001930036640270267D0E7F01121E70052CD3E596
:1001A3002C648094BB4003E4F52CE52C75F00A1213
:1001B3001CFEFF121CEBE52C121CE230B5030202FD
:1001C3004C121E4830B5FDE53670267D047F0112C2
:1001D3001E701541C3E54164809480500375411737
:1001E300E54175F00A121CFEFF121CEBE541121CDF
:1001F300E2E536640170267D097F01121E70154AFF
:10020300C3E54A648094805003754A3BE54A75F020
:100213000A121CFEFF121CEBE54A121CE2E53664CF
:100223000270267D0E7F01121E70152CC3E52C640F
:100233008094805003752C3BE52C75F00A121CFE4C
:10024300FF121CEBE52C121CE220B708121E4830EB
:10025300B7FD0536E53664037046121E277BFF7A29
:100263001A7921121D46121D3920B619121E483063
:10027300B6FD7521017D067F01121E707BFF7A1A80
:100283007934121D4620B50C121E4830B5FDE4F535
:1002930021121D3920B7D2121E4830B7FD7536041E
:1002A300E53664046003020130F536121E277BFF36
:1002B3007A197978121D46121E6C7BFF7A197980A0
:1002C300121D46E5316401600302047F121E277D7F
:1002D30002E4FF121E707BFF7A1A7937121D461251
:1002E3001E6C7BFF7A1A7942121D4630B603020355
:1002F3007C121E4830B6FDE53670267D047F011260
:100303001E700543D3E543648094974003E4F543AB
:10031300E54375F00A121CFEFF121CEBE543121CA9
:10032300E2E536640170267D097F01121E70054BDC
:10033300D3E54B648094BB4003E4F54BE54B75F088
:100343000A121CFEFF121CEBE54B121CE2E536649D
:100353000270267D0E7F01121E70052DD3E52D64DC
:100363008094BB4003E4F52DE52D75F00A121CFEC5
:10037300FF121CEBE52D121CE230B503020405123B
:100383001E4830B5FDE53670267D047F01121E70D0
:100393001543C3E543648094805003754317E543D5
:1003A30075F00A121CFEFF121CEBE543121CE2E57A
:1003B30036640170267D097F01121E70154BC3E55B
:1003C3004B648094805003754B3BE54B75F00A12E8
:1003D3001CFEFF121CEBE54B121CE2E536640270B7
:1003E300217D0E7F01121E70152DE52D6003752DE5
:1003F3003BE52D75F00A121CFEFF121CEBE52D12D6
:100403001CE220B708121E4830B7FD0536E53664F6
:10041300037046121E277BFF7A1A7953121D461268
:100423001D3920B619121E4830B6FD7522017D060E
:100433007F01121E707BFF7A1A7934121D4620B594
:100443000C121E4830B5FDE4F522121D3920B7D237
:10045300121E4830B7FD753604E5366404600302A6
:1004630002EEF536121E277BFF7A197978121D46A4
:10047300121E6C7BFF7A197980121D46E5316402E6
:100483006003020638121E277D02E4FF121E707BF2
:10049300FF7A1A7963121D46121E6C7BFF7A1A7952
:1004A3006E121D4630B603020535121E4830B6FDE6
:1004B300E53670267D047F01121E700545D3E545A0
:1004C300648094974003E4F545E54575F00A121CF2
:1004D300FEFF121CEBE545121CE2E53664017026B3
:1004E3007D097F01121E70054CD3E54C648094BBDB
:1004F3004003E4F54CE54C75F00A121CFEFF121C98
:10050300EBE54C121CE2E536640270267D0E7F019A
:10051300121E70052ED3E52E648094BB4003E4F5D0
:100523002EE52E75F00A121CFEFF121CEBE52E12AF
:100533001CE230B5030205BE121E4830B5FDE53698
:1005430070267D047F01121E701545C3E545648046
:1005530094805003754517E54575F00A121CFEFF9C
:10056300121CEBE545121CE2E536640170267D0999
:100573007F01121E70154CC3E54C648094805003B8
:10058300754C3BE54C75F00A121CFEFF121CEBE5A3
:100593004C121CE2E536640270217D0E7F01121EAF
:1005A30070152EE52E6003752E3BE52E75F00A12AD
:1005B3001CFEFF121CEBE52E121CE220B708121ED4
:1005C3004830B7FD0536E53664037046121E277BB7
:1005D300FF7A1A797F121D46121D3920B619121E91
:1005E3004830B6FD7523017D067F01121E707BFF27
:1005F3007A1A7934121D4620B50C121E4830B5FD07
:10060300E4F523121D3920B7D2121E4830B7FD7509
:100613003604E536640460030204A7F536121E2788
:100623007BFF7A197978121D46121E6C7BFF7A19AB
:100633007980121D46E531640360030207F1121E3F
:10064300277D02E4FF121E707BFF7A1A798F121D39
:1006530046121E6C7BFF7A1A799A121D4630B60336
:100663000206EE121E4830B6FDE53670267D047F85
:1006730001121E700547D3E547648094974003E455
:10068300F547E54775F00A121CFEFF121CEBE54720
:10069300121CE2E536640170267D097F01121E708B
:1006A300054DD3E54D648094BB4003E4F54DE54D22
:1006B30075F00A121CFEFF121CEBE54D121CE2E55D
:1006C30036640270267D0E7F01121E70052FD3E55E
:1006D3002F648094BB4003E4F52FE52F75F00A12D5
:1006E3001CFEFF121CEBE52F121CE230B5030207C0
:1006F30077121E4830B5FDE53670267D047F011262
:100703001E701547C3E547648094805003754717EF
:10071300E54775F00A121CFEFF121CEBE547121C9D
:10072300E2E536640170267D097F01121E70154DC6
:10073300C3E54D648094805003754D3BE54D75F0E2
:100743000A121CFEFF121CEBE54D121CE2E5366497
:100753000270217D0E7F01121E70152FE52F60039D
:10076300752F3BE52F75F00A121CFEFF121CEBE5FB
:100773002F121CE220B708121E4830B7FD0536E5DC
:100783003664037046121E277BFF7A1A79AB121D5B
:1007930046121D3920B619121E4830B6FD752401C4
:1007A3007D067F01121E707BFF7A1A7934121D4673
:1007B30020B50C121E4830B5FDE4F524121D392076
:1007C300B7D2121E4830B7FD753604E536640460AF
:1007D30003020660F536121E277BFF7A1979781219
:1007E3001D46121E6C7BFF7A197980121D46E53176
:1007F300640760030209AA121E277D02E4FF121E8A
:10080300707BFF7A1A798F121D46121E6C7BFF7A5A
:100813001A79BB121D4630B6030208A7121E4830D0
:10082300B6FDE53670267D047F01121E70053CD3AC
:10083300E53C648094974003E4F53CE53C75F00A9D
:10084300121CFEFF121CEBE53C121CE2E5366401B0
:1008530070267D097F01121E700540D3E540648038
:1008630094BB4003E4F540E54075F00A121CFEFF1B
:10087300121CEBE540121CE2E536640270267D0E85
:100883007F01121E700529D3E529648094BB4003C0
:10089300E4F529E52975F00A121CFEFF121CEBE5AD
:1008A30029121CE230B503020930121E4830B5FD8F
:1008B300E53670267D047F01121E70153CC3E53CAE
:1008C300648094805003753C17E53C75F00A121C54
:1008D300FEFF121CEBE53C121CE2E53664017026B8
:1008E3007D097F01121E701540C3E540648094802A
:1008F300500375403BE54075F00A121CFEFF121CC5
:10090300EBE540121CE2E536640270217D0E7F01A7
:10091300121E701529E529600375293BE52975F039
:100923000A121CFEFF121CEBE529121CE220B70879
:10093300121E4830B7FD0536E53664037046121EB5
:10094300277BFF7A1A79AB121D46121D3920B6197F
:10095300121E4830B6FD7548017D067F01121E70D8
:100963007BFF7A1A7934121D4620B50C121E4830CB
:10097300B5FDE4F548121D3920B7D2121E4830B731
:10098300FD753604E53664046003020819F5361272
:100993001E277BFF7A197978121D46121E6C7BFF86
:1009A3007A197980121D46E53164066003020B63F0
:1009B300121E277D02E4FF121E707BFF7A1A7963F1
:1009C300121D46121E6C7BFF7A1A79BB121D46302C
:1009D300B603020A60121E4830B6FDE53670267D66
:1009E300047F01121E70053BD3E53B64809497405E
:1009F30003E4F53BE53B75F00A121CFEFF121CEB0A
:100A0300E53B121CE2E536640170267D097F011285
:100A13001E70053FD3E53F648094BB4003E4F53F7C
:100A2300E53F75F00A121CFEFF121CEBE53F121C9A
:100A3300E2E536640270267D0E7F01121E700528E2
:100A4300D3E528648094BB4003E4F528E52875F0DA
:100A53000A121CFEFF121CEBE528121CE230B50340
:100A6300020AE9121E4830B5FDE53670267D047F83
:100A730001121E70153BC3E53B64809480500375DF
:100A83003B17E53B75F00A121CFEFF121CEBE53B1E
:100A9300121CE2E536640170267D097F01121E7087
:100AA300153FC3E53F648094805003753F3BE53FAA
:100AB30075F00A121CFEFF121CEBE53F121CE2E567
:100AC30036640270217D0E7F01121E701528E52801
:100AD300600375283BE52875F00A121CFEFF121C03
:100AE300EBE528121CE220B708121E4830B7FD05BB
:100AF30036E53664037046121E277BFF7A1A797F28
:100B0300121D46121D3920B619121E4830B6FD7546
:100B130046017D067F01121E707BFF7A1A7934121B
:100B23001D4620B50C121E4830B5FDE4F546121DD6
:100B33003920B7D2121E4830B7FD753604E5366446
:100B43000460030209D2F536121E277BFF7A197956
:100B530078121D46121E6C7BFF7A197980121D468E
:100B6300E53164056003020D1C121E277D02E4FFBC
:100B7300121E707BFF7A1A7937121D46121E6C7B88
:100B8300FF7A1A79BB121D4630B603020C19121EE6
:100B93004830B6FDE53670267D047F01121E7005D0
:100BA3003AD3E53A648094974003E4F53AE53A751D
:100BB300F00A121CFEFF121CEBE53A121CE2E536AA
:100BC300640170267D097F01121E70053ED3E53E48
:100BD300648094BB4003E4F53EE53E75F00A121CC5
:100BE300FEFF121CEBE53E121CE2E53664027026A2
:100BF3007D0E7F01121E700527D3E527648094BB09
:100C03004003E4F527E52775F00A121CFEFF121CCA
:100C1300EBE527121CE230B503020CA2121E48308A
:100C2300B5FDE53670267D047F01121E70153AC3AB
:100C3300E53A648094805003753A17E53A75F00AF3
:100C4300121CFEFF121CEBE53A121CE2E5366401AE
:100C530070267D097F01121E70153EC3E53E648038
:100C630094805003753E3BE53E75F00A121CFEFF6F
:100C7300121CEBE53E121CE2E536640270217D0E88
:100C83007F01121E701527E527600375273BE527B3
:100C930075F00A121CFEFF121CEBE527121CE22062
:100CA300B708121E4830B7FD0536E53664037046B3
:100CB300121E277BFF7A1A7953121D46121D392003
:100CC300B619121E4830B6FD7544017D067F011228
:100CD3001E707BFF7A1A7934121D4620B50C121E42
:100CE3004830B5FDE4F544121D3920B7D2121E4831
:100CF30030B7FD753604E53664046003020B8BF5EB
:100D030036121E277BFF7A197978121D46121E6C44
:100D13007BFF7A197980121D46E531640460030272
:100D23000EDA121E277D02E4FF121E707BFF7A1972
:100D33007988121D46121E6C7BFF7A1A79BB121D2D
:100D43004630B603020DD2121E4830B6FDE53670AA
:100D5300267D047F01121E700538D3E53864809424
:100D6300974003E4F538E53875F00A121CFEFF12CC
:100D73001CEBE538121CE2E536640170267D097F21
:100D830001121E70053DD3E53D648094BB4003E42E
:100D9300F53DE53D75F00A121CFEFF121CEBE53D27
:100DA300121CE2E536640270267D0E7F01121E706E
:100DB3000526D3E526648094BB4003E4F526E526A7
:100DC30075F00A121CFEFF121CEBE526121CE23022
:100DD300B503020E60121E4830B5FDE53670267D60
:100DE300047F01121E701538C3E538648094805067
:100DF30003753817E53875F00A121CFEFF121CEB59
:100E0300E538121CE2E536640170267D097F011284
:100E13001E70153DC3E53D648094805003753D3BD2
:100E2300E53D75F00A121CFEFF121CEBE53D121C9A
:100E3300E2E536640270267D0E7F01121E701526D0
:100E4300C3E52664809480500375263BE52675F040
:100E53000A121CFEFF121CEBE526121CE220B70847
:100E6300121E4830B7FD0536E53664037046121E80
:100E7300277BFF7A1A7921121D46121D3920B619D4
:100E8300121E4830B6FD7542017D067F01121E70A9
:100E93007BFF7A1A7934121D4620B50C121E483096
:100EA300B5FDE4F542121D3920B7D2121E4830B702
:100EB300FD753604E53664046003020D44F536120D
:100EC3001E277BFF7A197978121D46121E6C7BFF51
:080ED3007A197980121D4622F4
:101C1D00E5306401704BE5397047E534653370414B
:101C2D00E5356537703B121E277BFF7A1A79CC128A
:101C3D001D46E4F9121ECF20B70B121E4830B7FD1A
:101C4D00753901800409B946EB121E277BFF7A1AFC
:101C5D0079DC121D46121E6C7BFF7A1A79E3121D78
:101C6D0046E53465336009E53565376003E4F539DC
:011C7D002244
:10144100E521B40111E541B5340CE54AB53507E5AF
:101451002CB52A02C293E522B40111E543B5340C3F
:10146100E54BB53507E52DB52A02C294E523B40154
:1014710011E545B5340CE54CB53507E52EB52A0225
:10148100C295E524B40111E547B5340CE54DB535F8
:1014910007E52FB52A02C296E542B40111E538B538
:1014A100340CE53DB53507E526B52A02D293E5446E
:1014B100B40111E53AB5340CE53EB53507E527B57C
:1014C1002A02D294E546B40111E53BB5340CE53F5F
:1014D100B53507E528B52A02D295E548B40111E5ED
:1014E1003CB5340CE540B53507E529B52A02D2965D
:1014F10030B60302172F121E4830B6FD121E27E523
:101501002164017051FDFF121E707BFF7A1A79EA86
:10151100121D46E54175F00A121CFEFF121CEBE597
:1015210041121CE27F3A7E00121CF6E54A75F00A70
:10153100121CFEFF121CEBE54A121CE27F3A7E00F0
:10154100121CF6E52C75F00A121CFEFF121CEBE5CD
:101551002C121CE2800FE4FDFF121E707BFF7A1A31
:1015610079EF121D46E52264017052FD7F01121EC2
:10157100707BFF7A1A79FC121D46E54375F00A1259
:101581001CFEFF121CEBE543121CE27F3A7E0012A7
:101591001CF6E54B75F00A121CFEFF121CEBE54B25
:1015A100121CE27F3A7E00121CF6E52D75F00A123C
:1015B1001CFEFF121CEBE52D121CE2800C121E6CAE
:1015C1007BFF7A1B7901121D467FB87E0B121E4CE0
:1015D100E52364017051FDFF121E707BFF7A1B79B8
:1015E1000E121D46E54575F00A121CFEFF121CEB9A
:1015F100E545121CE27F3A7E00121CF6E54C75F0BF
:101601000A121CFEFF121CEBE54C121CE27F3A7E13
:1016110000121CF6E52E75F00A121CFEFF121CEBDF
:10162100E52E121CE2800FE4FDFF121E707BFF7A93
:101631001B7913121D46E52464017052FD7F0112CE
:101641001E707BFF7A1B7920121D46E54775F00A53
:10165100121CFEFF121CEBE547121CE27F3A7E00D2
:10166100121CF6E54D75F00A121CFEFF121CEBE58B
:101671004D121CE27F3A7E00121CF6E52F75F00A2E
:10168100121CFEFF121CEBE52F121CE2800C121E35
:101691006C7BFF7A1B7925121D467FB87E0B121ECB
:1016A1004CE5306401704C121E277D04E4FF121ECC
:1016B100707BFF7A19794B121D467D057F01121E41
:1016C10070E53375F00A121CFEFF121CEBE53312B4
:1016D1001CE27F3A7E00121CF6E53775F00A121CF7
:1016E100FEFF121CEBE537121CE27FB87E0B121EC7
:1016F1004C8023121E277D03E4FF121E707BFF7AAC
:1017010019794B121D467D057F01121E707BFF7AF0
:101711001B7932121D46121E207BFF7A1A79DC12C8
:101721001D46121E6C7BFF7A1A79E3121D4630B5F5
:1017310003021904121E4830B5FD121E277BFF7AE1
:101741001B7938121D467FDC7E05121E4C121E27A6
:10175100E54264017051FDFF121E707BFF7A1A7918
:10176100EA121D46E53875F00A121CFEFF121CEB49
:10177100E538121CE27F3A7E00121CF6E53D75F059
:101781000A121CFEFF121CEBE53D121CE27F3A7EA1
:1017910000121CF6E52675F00A121CFEFF121CEB66
:1017A100E526121CE2800FE4FDFF121E707BFF7A1A
:1017B1001A79EF121D46E54464017052FD7F011252
:1017C1001E707BFF7A1A79FC121D46E53A75F00A04
:1017D100121CFEFF121CEBE53A121CE27F3A7E005E
:1017E100121CF6E53E75F00A121CFEFF121CEBE519
:1017F1003E121CE27F3A7E00121CF6E52775F00AC4
:10180100121CFEFF121CEBE527121CE2800C121EBB
:101811006C7BFF7A1B7901121D467FB87E0B121E6D
:101821004CE54664017051FDFF121E707BFF7A1B6F
:10183100790E121D46E53B75F00A121CFEFF121CC3
:10184100EBE53B121CE27F3A7E00121CF6E53F7588
:10185100F00A121CFEFF121CEBE53F121CE27F3A5C
:101861007E00121CF6E52875F00A121CFEFF121C00
:10187100EBE528121CE2800FE4FDFF121E707BFFD6
:101881007A1B7913121D46E54864017052FD7F01F0
:10189100121E707BFF7A1B7920121D46E53C75F004
:1018A1000A121CFEFF121CEBE53C121CE27F3A7E81
:1018B10000121CF6E54075F00A121CFEFF121CEB2B
:1018C100E540121CE27F3A7E00121CF6E52975F014
:1018D1000A121CFEFF121CEBE529121CE2800C12FD
:1018E1001E6C7BFF7A1B7925121D46121E207BFF81
:1018F1007A1A79DC121D46121E6C7BFF7A1A79E383
:04190100121D46224B
:101DF700121C7E7BFF7A1A79DC121D46121E6C7B41
:101E0700FF7A1A79E3121D46121B48120EDB121CC9
:091E17001D12000312144180EFBA
:03000000021F2DAF
:0C1F2D00787FE4F6D8FD75814D021DF7A9
:101CFE00C2D530F707B2D563F0FF05F030E70CB26E
:101D0E00D5F4048463F0FF05F080018430D502F42D
:021D1E0004229D
:101D2000BB010689828A83E0225002E722BBFE02C1
:091D3000E32289828A83E49322F4
:00000001FF
